:1000000002C0E102B9EA53B6FD323202C1DD53B695
:10001000FE3232020006758F01223202000EE4FF2A
:10002000FE12004E0000EF25E0FF308E034401FF7A
:1000300012C1E900000EEEB408E72202BB5702C16C
:10004000CF000002000AC28D220000020012C2830B
:1000500022000002001A0001010101010101010159
:10006000020202020203030303040404040505055B
:100070000606070707080809090A0A0B0C0C0D0EEB
:100080000E0F1010111213141415161718191A1B2D
:100090001C1D1F20212223252627292A2B2D2E3007
:1000A00032333536383A3C3D3F41434547494B4D65
:1000B0004F525456585B5D5F6264FFFEFDFCFBFAD5
:1000C000F9F8F7F6F5F4F3F2F1F0EFEEEDECEBEA18
:1000D000E9E8E7E6E5E4E3E2E1E0DFDEDDDCDBDA08
:1000E000D9D8D7D6D5D4D3D2D1D0CFCECDCCCBCAF8
:1000F000C9C8C7C6C5C4C3C2C1C0BFBEBDBCBBBAE8
:10010000B9B8B7B6B5B4B3B2B1B0AFAEADACABAAD7
:10011000A9A8A7A6A5A4A3A2A1A09F9E9D9C9B9AC7
:10012000999897969594939291908F8E8D8C8B8AB7
:10013000898887868584838281807F7E7D7C7B7AA7
:10014000797877767574737271706F6E6D6C6B6A97
:10015000696867666564636261605F5E5D5C5B5A87
:10016000595857565554535251504F4E4D4C4B4A77
:10017000494847464544434241403F3E3D3C3B3A67
:10018000393837363534333231302F2E2D2C2B2A57
:10019000292827262524232221201F1E1D1C1B1A47
:1001A000191817161514131211100F0E0D0C0B0A37
:1001B0000908070605040302010000000000000012
:1001C000000000000000000000000000000000002F
:1001D000000000000000000000000000000000001F
:1001E000000000000000000000000000000000000F
:1001F00000000000000000000000000000000000FF
:1002000000000000000000000000000000000000EE
:1002100000000000000000000000000000000000DE
:1002200000000000000000000000000000000000CE
:1002300000000000000000000000000000000000BE
:1002400000000000000000000000000000000000AE
:10025000000000000000000000000000000000009E
:10026000000000000000000000000000000000008E
:10027000000000000000000000000000000000007E
:10028000000000000000000000000000000000006E
:10029000000000000000000000000000000000005E
:1002A000000000000000000000000000000000004E
:1002B000000000000000000000000001020304052F
:1002C000060708090A0B0C0D0E0F10111213141556
:1002D000161718191A1B1C1D1E1F20212223242546
:1002E000262728292A2B2C2D2E2F30313233343536
:1002F000363738393A3B3C3D3E3F40414243444526
:10030000464748494A4B4C4D4E4F50515253545515
:10031000565758595A5B5C5D5E5F60616263646505
:10032000666768696A6B6C6D6E6F707172737475F5
:10033000767778797A7B7C7D7E7F808182838485E5
:10034000868788898A8B8C8D8E8F909192939495D5
:10035000969798999A9B9C9D9E9FA0A1A2A3A4A5C5
:10036000A6A7A8A9AAABACADAEAFB0B1B2B3B4B5B5
:10037000B6B7B8B9BABBBCBDBEBFC0C1C2C3C4C5A5
:10038000C6C7C8C9CACBCCCDCECFD0D1D2D3D4D595
:10039000D6D7D8D9DADBDCDDDEDFE0E1E2E3E4E585
:1003A000E6E7E8E9EAEBECEDEEEFF0F1F2F3F4F575
:1003B000F6F7F8F9FAFBFCFDFEFF64636261605F2B
:1003C0005E5D5C5B5A595857565554535251504FC5
:1003D0004E4D4C4B4A494847464544434241403FB5
:1003E0003E3D3C3B3A393837363534333231302FA5
:1003F0002E2D2C2B2A292827262524232221201F95
:100400001E1D1C1B1A191817161514131211100F84
:100410000E0D0C0B0A090807060504030201000073
:1004200000000000000000000000000000000000CC
:1004300000000000000000000000000000000000BC
:1004400000000000000000000000000000000000AC
:10045000000000000000000000000000000000009C
:10046000000000000000000000000000000000008C
:10047000000000000000000000000000000000007C
:1004800000000102030405060708090A0B0C0D0E03
:100490000F101112131415161718191A1B1C1D1EF4
:1004A0001F202122232425262728292A2B2C2D2EE4
:1004B0002F303132333435363738393A3B3C3D3ED4
:1004C0003F404142434445464748494A4B4C4D4EC4
:1004D0004F505152535455565758595A5B5C5D5EB4
:1004E0005F60616263640001020304050607080996
:1004F0000A0B0C0D0E0F10111213141516171819E4
:100500001A1B1C1D1E1F20212223242526272829D3
:100510002A2B2C2D2E2F30313233343536373839C3
:100520003A3B3C3D3E3F40414243444546474849B3
:100530004A4B4C4D4E4F50515253545556575859A3
:100540005A5B5C5D5E5F6061626364656667686993
:100550006A6B6C6D6E6F7071727374757677787983
:100560007A7B7C7D7E7F8081828384858687888973
:100570008A8B8C8D8E8F9091929394959697989963
:100580009A9B9C9D9E9FA0A1A2A3A4A5A6A7A8A953
:10059000AAABACADAEAFB0B1B2B3B4B5B6B7B8B943
:1005A000BABBBCBDBEBFC0C1C2C3C4C5C6C7C8C933
:1005B000CACBCCCDCECFD0D1D2D3D4D5D6D7D8D923
:1005C000DADBDCDDDEDFE0E1E2E3E4E5E6E7E8E913
:1005D000EAEBECEDEEEFF0F1F2F3F4F5F6F7F8F903
:1005E000FAFBFCFDFEFFFFFEFDFCFBFAF9F8F7F657
:1005F000F5F4F3F2F1F0EFEEEDECEBEAE9E8E7E623
:10060000E5E4E3E2E1E0DFDEDDDCDBDAD9D8D7D612
:10061000D5D4D3D2D1D0CFCECDCCCBCAC9C8C7C602
:10062000C5C4C3C2C1C0BFBEBDBCBBBAB9B8B7B6F2
:10063000B5B4B3B2B1B0AFAEADACABAAA9A8A7A6E2
:10064000A5A4A3A2A1A09F9E9D9C9B9A99989796D2
:100650009594939291908F8E8D8C8B8A89888786C2
:100660008584838281807F7E7D7C7B7A79787776B2
:100670007574737271706F6E6D6C6B6A69686766A2
:100680006564636261605F5E5D5C5B5A5958575692
:100690005554535251504F4E4D4C4B4A4948474682
:1006A0004544434241403F3E3D3C3B3A3938373672
:1006B0003534333231302F2E2D2C2B2A2928272662
:1006C0002524232221201F1E1D1C1B1A1918171652
:1006D0001514131211100F0E0D0C0B0A0908070642
:1006E00005040302010000000000000000000000FB
:1006F00000000000000000000000000000000000FA
:1007000000000000000000000000000000000000E9
:1007100000000000000000000000000000000000D9
:1007200000000000000000000000000000000000C9
:1007300000000000000000000000000000000000B9
:1007400000000000000000000000000000000000A9
:100750000000000000000000000000000000000099
:100760000000000000000000000000000000000089
:100770000000000000000000000000000000000079
:100780000000000000000000000000000000000069
:100790000000000000000000000000000000000059
:1007A0000000000000000000000000000000000049
:1007B0000000000000000000000000000000000039
:1007C0000000000000000000000000000000000029
:1007D0000000000000000000000000000000000019
:1007E0000000000000000102030405060708090AD2
:1007F0000B0C0D0E0F101112131415161718191AD1
:100800001B1C1D1E1F202122232425262728292AC0
:100810002B2C2D2E2F303132333435363738393AB0
:100820003B3C3D3E3F404142434445464748494AA0
:100830004B4C4D4E4F505152535455565758595A90
:100840005B5C5D5E5F606162636464636261605FA4
:100850005E5D5C5B5A595857565554535251504F30
:100860004E4D4C4B4A494847464544434241403F20
:100870003E3D3C3B3A393837363534333231302F10
:100880002E2D2C2B2A292827262524232221201F00
:100890001E1D1C1B1A191817161514131211100FF0
:1008A0000E0D0C0B0A0908070605040302010000DF
:1008B0000000000000000000000000000000000038
:1008C0000000000000000000000000000000000028
:1008D0000000000000000000000000000000000018
:1008E0000000000000000000000000000000000008
:1008F00000000000000000000000000000000000F8
:1009000000000000000000000000000000000000E7
:1009100000000000000000000000000000000000D7
:1009200000000000000000000000000000000000C7
:1009300000000000000000000000000000000000B7
:1009400000000000000000000000000000000000A7
:100950000000000000000000000000000000000097
:100960000000000000000000000000000000000087
:100970000000000000000000000000000000000077
:100980000000000000000000000000000000000067
:100990000000000000000000000000000000000057
:1009A0000000000000000000000000000000000047
:1009B0000000000000000000000000000000000037
:1009C0000000000000000000000000000000000027
:1009D0000000000000000000000000000000000017
:1009E0000000000000000000000000000000000007
:1009F00000000000000000000000000000000000F7
:100A000000000000000000000000000000000000E6
:100A10000000000102030405060708090A0B0C0D7B
:100A20000E0F101112131415161718191A1B1C1D6E
:100A30001E1F202122232425262728292A2B2C2D5E
:100A40002E2F303132333435363738393A3B3C3D4E
:100A50003E3F404142434445464748494A4B4C4D3E
:100A60004E4F505152535455565758595A5B5C5D2E
:100A70005E5F606162636465666768696A6B6C6D1E
:100A80006E6F707172737475767778797A7B7C7D0E
:100A90007E7F808182838485868788898A8B8C8DFE
:100AA0008E8F909192939495969798999A9B9C9DEE
:100AB0009E9FA0A1A2A3A4A5A6A7A8A9AAABACADDE
:100AC000AEAFB0B1B2B3B4B5B6B7B8B9BABBBCBDCE
:100AD000BEBFC0C1C2C3C4C5C6C7C8C9CACBCCCDBE
:100AE000CECFD0D1D2D3D4D5D6D7D8D9DADBDCDDAE
:100AF000DEDFE0E1E2E3E4E5E6E7E8E9EAEBECED9E
:100B0000EEEFF0F1F2F3F4F5F6F7F8F9FAFBFCFD8D
:100B1000FEFFFFFEFDFCFBFAF9F8F7F6F5F4F3F241
:100B2000F1F0EFEEEDECEBEAE9E8E7E6E5E4E3E22D
:100B3000E1E0DFDEDDDCDBDAD9D8D7D6D5D4D3D21D
:100B4000D1D0CFCECDCCCBCAC9C8C7C6C5C4C3C20D
:100B5000C1C0BFBEBDBCBBBAB9B8B7B6B5B4B3B2FD
:100B6000B1B0AFAEADACABAAA9A8A7A6A5A4A3A2ED
:100B7000A1A09F9E9D9C9B9A9998979695949392DD
:100B800091908F8E8D8C8B8A8988878685848382CD
:100B900081807F7E7D7C7B7A7978777675747372BD
:100BA00071706F6E6D6C6B6A6968676665646362AD
:100BB00061605F5E5D5C5B5A59585756555453529D
:100BC00051504F4E4D4C4B4A49484746454443428D
:100BD00041403F3E3D3C3B3A39383736353433327D
:100BE00031302F2E2D2C2B2A29282726252423226D
:100BF00021201F1E1D1C1B1A19181716151413125D
:100C000011100F0E0D0C0B0A09080706050403024C
:100C100001000000000000000000000000000000D3
:100C200000000000000000000000000000000000C4
:100C300000000000000000000000000000000000B4
:100C400000000000000000000000000000000000A4
:100C50000000000000000000000000000000000094
:100C60000000000000000000000000000000000084
:100C70000000000000000102030405060708090A3D
:100C80000B0C0D0E0F101112131415161718191A3C
:100C90001B1C1D1E1F202122232425262728292A2C
:100CA0002B2C2D2E2F303132333435363738393A1C
:100CB0003B3C3D3E3F404142434445464748494A0C
:100CC0004B4C4D4E4F505152535455565758595AFC
:100CD0005B5C5D5E5F606162636464636261605F10
:100CE0005E5D5C5B5A595857565554535251504F9C
:100CF0004E4D4C4B4A494847464544434241403F8C
:100D00003E3D3C3B3A393837363534333231302F7B
:100D10002E2D2C2B2A292827262524232221201F6B
:100D20001E1D1C1B1A191817161514131211100F5B
:100D30000E0D0C0B0A090807060504030201FAF65A
:100D4000F2EFEBE7E3E0DEDAD6D3CFCCC8C5C1BE25
:100D5000BBB9B6B2AFACA8A5A2A19D9A9794918E4B
:100D60008B8A8784817F7C79767573706D6B6866FA
:100D70006362605D5B58565452514E4C4A4846443B
:100D800042403F3D3C3B3938373634333231302EE8
:100D90002D2C2B2927262422201F1E1D1B1A191833
:100DA0001716141312110E0C0A0908070605030280
:100DB0000100000000000000000000000000000032
:100DC0000000000000000000000000000000000023
:100DD0000000000000000000000000000000000013
:100DE0000000000000000000000000000000000003
:100DF00000000000000000000000000000000000F3
:100E000000000000000000000000000000000000E2
:100E100000000000000000000000000000000000D2
:100E200000000000000000000000000000000000C2
:100E300000000000000000000000000000000000B2
:100E400000000000000000000000000000000000A2
:100E50000000000000000000000000000000000092
:100E60000000000000000000000000000000000082
:100E70000000000000000000000000000000000072
:100E80000000000000000000000000000000000062
:100E90000000000000000000000000000000000052
:100EA0000000000000000000000000000000000042
:100EB0000000000000000000000000000000000032
:100EC0000000000000000000000000000000000022
:100ED0000000000000000000000000000000000012
:100EE0000000000000000000000000000000000002
:100EF00000000000000000000000000000000000F2
:100F000000000000000000000000000000000000E1
:100F100000000000000000000000000000000000D1
:100F200000000000000000000000000000000000C1
:100F300000000000000000000000000000000000B1
:100F400000000000000000000000000000000000A1
:100F50000000000000000000000000000000000091
:100F60000000000000000000000000000000000081
:100F70000000000000000000000000000000000071
:100F80000000000000000000000000000000000061
:100F90000000000000000000000000000000000051
:100FA0000000000000000000000000000000000041
:100FB0000000000000000000000000000000000031
:100FC00001020305060708090A0C0E111213141674
:100FD0001718191A1B1D1E1F2022242627292B2C07
:100FE0002D2E3031323334363738393B3C3D3F409B
:100FF000424446484A4C4E51525456585B5D6062DA
:101000006366686B6D70737576797C7F8184878A7F
:101010008B8E9194979A9DA1A2A5A8ACAFB2B6B9B8
:10102000BBBEC1C5C8CCCFD3D5D8DCE0E3E7EBEF7E
:10103000F2F6FAFAFAFAFAFAFAFAFAFAFAFAFAFA1C
:10104000FAFAFAFAFAFAFAFAFAFAFAFAFAFAFAFA00
:10105000FAFAFAFAFAFAFAFAFAFAFAFAFAFAFAFAF0
:10106000FAFAFAFAFAFAFAFAFAFAFAFAFAFAFAFAE0
:10107000FAFAFAFAFAFAFAFAFAFAFAFAFAFAFAFAD0
:10108000FAFAFAFAFAFAFAFAFAFAFAFAFAFAFAFAC0
:10109000FAFAFAFAFAFAFAFAFAFAFAFAFAFAFAFAB0
:1010A000FAFAFAFAFAFAFAFAFAFAFAFAFAFAFAFAA0
:1010B000FAFAFAFAFAFAFAFAFAFAFAFAFAFAFAFA90
:1010C000FAFAFAFAFAFAFAFAFAFAFAFAFAFAFAFA80
:1010D000FAFAFAFAFAFAFAFAFAFAFAFAFAFAFAFA70
:1010E000FAFAFAFAFAFAFAFAFAFAFAFAFAFAFAFA60
:1010F000FAFAFAFAFAFAFAFAFAFAFAFAFAFAFAFA50
:10110000FA000000000000000000000000000000E5
:1011100000000000000000000000000000000000CF
:1011200000000000000000000000000000000000BF
:1011300000000000000000000000000000000000AF
:10114000000000000000000000000000000000009F
:10115000000000000000000000000000000000008F
:10116000000000000000000000000000000000007F
:10117000000000000000000000000000000000006F
:10118000000000000000000000000000000000005F
:10119000000000000000000000000000000000004F
:1011A000000000000000000000000000000000003F
:1011B000000000000000000000000000000000002F
:1011C000000000000000000000000000000000001F
:1011D000000000000000000000000000000000000F
:1011E00000000000000000000000000000000000FF
:1011F00000000000000000000000000000000000EF
:1012000000000000000000000000000000000000DE
:1012100000000000000000000000000000000000CE
:1012200000000000000000000000000000000000BE
:1012300000000000000000000000000000000000AE
:10124000000001020305060708090A0C0E1112131B
:1012500014161718191A1B1D1E1F202224262729B1
:101260002B2C2D2E3031323334363738393B3C3D40
:101270003F40424446484A4C4E51525456585B5D9A
:1012800060626366686B6D70737576797C7D7D7D59
:101290007D7D7D7D7D7D7D7D7D7D7D7D7D7D7D7D7E
:1012A0007D7D7D7D7D7D7D7D7D7D7D7D7D7D7D7D6E
:1012B0007D7D7D7D7D7D7D7D7D7D7D7D7D7D7D7D5E
:1012C0007D7D7D7D7D7D7D7D7D7D7D7D7D7D7D7D4E
:1012D0007D7D7D7D7D7D7D7D7D7D7D7D7D7D7D7D3E
:1012E0007D7D7D7D7D7D7D7D7D7D7D7D7D7D7D7D2E
:1012F0007D7D7D7D7D7D7D7D7D7D7D7D7D7D7D7D1E
:101300007D7D7D7D7D7D7D7D7D7D7D7D7D7D7D7D0D
:101310007D7D7D7D7D7D7D7D7D7D7D7D7D7D7D7DFD
:101320007D7D7D7D7D7D7D7D7D7D7D7D7D7D7D7DED
:101330007D7D7D7D7D7D7D7D7D7D7D7D7D7D7D7DDD
:101340007D7D7D7D7D7D7D7D7D7D7D7D7D7D7D7DCD
:101350007D7D7D7D7D7D7D7D7D7D7D7D7D7D7D7DBD
:101360007D7D7D7D7D7D7D7D7D7D7D7D7D7D7D7DAD
:101370007D7D7D7D7D7D7D7D7D7D7D7D7D7D7D7D9D
:101380007D7D7D7D7D7D7D7D7D7D7D7D7D7D7D7D8D
:101390007D7D7D7D7D7D7D7D7D7D7D7D7D7D7D7D7D
:1013A0007D7D7D7D7D7D7D7D7D7D7D7C797675738B
:1013B000706D6B68666362605D5B58565452514E47
:1013C0004C4A48464442403F3D3C3B39383736342E
:1013D000333231302E2D2C2B2927262422201F1E7C
:1013E0001D1B1A19181716141312110E0C0A0908CE
:1013F00007060503020100000000000000000000D5
:1014000000000000000000000000000000000000DC
:1014100000000000000000000000000000000000CC
:1014200000000000000000000000000000000000BC
:1014300000000000000000000000000000000000AC
:10144000000000000000000000000000000000009C
:10145000000000000000000000000000000000008C
:10146000000000000000000000000000000000007C
:10147000000000000000000000000000000000006C
:10148000000000000000000000000000000000005C
:10149000000000000000000000000000000000004C
:1014A000000000000000000000000000000000003C
:1014B000000000000000000000000000000000002C
:1014C0000000000001020305060708090A0C0E11BE
:1014D000121314161718191A1B1D1E1F202224265A
:1014E00027292B2C2D2E3031323334363738393BE7
:1014F0003C3D3F40424446484A4C4E515254565857
:101500005B5D60626366686B6D70737576797C7F16
:101510008184878A8B8E9194979A9DA1A2A5A8AC6D
:10152000AFB2B6B9BBBEC1C5C8CCCFD3D5D8DCE04D
:10153000E3E7EBEFF2F6FAFAFAFAFAFAFAFAFAFA5B
:10154000FAFAFAFAFAFAFAFAFAFAFAFAFAFAFAFAFB
:10155000FAFAFAFAFAFAFAFAFAFAFAFAFAFAFAFAEB
:10156000FAFAFAFAFAFAFAFAFAFAFAFAFAFAFAFADB
:10157000FAFAFAFAFAFAFAFAFAFAFAFAFAFAFAFACB
:10158000FAFAFAFAFAFAFAFAFAFAFAFAFAFAFAFABB
:10159000FAFAFAFAFAFAFAFAFAFAFAFAFAFAFAFAAB
:1015A000FAFAFAFAFAFAFAFAFAFAFAFAFAFAFAFA9B
:1015B000FAFAFAFAFAFAFAFAFAFAFAFAFAFAFAFA8B
:1015C000FAFAFAFAFAFAFAFAFAFAFAFAFAFAFAFA7B
:1015D000FAFAFAFAFAFAFAFAFAFAFAFAFAFAFAFA6B
:1015E000FAFAFAFAFAFAFAFAFAFAFAFAFAFAFAFA5B
:1015F000FAFAFAFAFAFAFAFAFAFAFAFAFAFAFAFA4B
:10160000FAFAFAFAFAFAF6F2EFEBE7E3E0DEDAD604
:10161000D3CFCCC8C5C1BEBBB9B6B2AFACA8A5A22A
:10162000A19D9A9794918E8B8A8784817F7C79760D
:101630007573706D6B68666362605D5B585654527B
:10164000514E4C4A48464442403F3D3C3B39383776
:101650003634333231302E2D2C2B292726242220CC
:101660001F1E1D1B1A19181716141312110E0C0A1F
:101670000908070605030201000000000000000041
:10168000000000000000000000000000000000005A
:10169000000000000000000000000000000000004A
:1016A000000000000000000000000000000000003A
:1016B000000000000000000000000000000000002A
:1016C000000000000000000000000000000000001A
:1016D000000000000000000000000000000000000A
:1016E00000000000000000000000000000000000FA
:1016F00000000000000000000000000000000000EA
:1017000000000000000000000000000000000000D9
:1017100000000000000000000000000000000000C9
:1017200000000000000000000000000000000000B9
:1017300000000000000000000000000000000000A9
:101740000000000000000000000000000000000099
:101750000000000000000000000000000000000089
:101760000000000000000000000000000000000079
:101770000000000000000000000000000000000069
:101780000000000000000000000000000000000059
:101790000000000000000000000000000000000049
:1017A0000000000000000000000000000000000039
:1017B0000000000000000000000000000000000029
:1017C0000000000000000000000000000000000019
:1017D0000000000000000000000000000000000009
:1017E00000000000000000000000000000000000F9
:1017F00000000000000000000000000000000000E9
:1018000000000000000000000000000000000000D8
:1018100000000000000000000000000000000000C8
:1018200000000000000000000000000000000000B8
:1018300000000000000000000000000000000000A8
:101840000000000000000000000000000000000098
:101850000000000000000000000000000000000088
:101860000000000000000000000000000000000078
:101870000000000000000000000000000000000068
:10188000000000000000009008E4EFF0E4782BF680
:10189000782BE6F9C394174003022DBC9008E5E0CD
:1018A000FCA3E0FDA3E0FEA3E0FFA801128145EF49
:1018B00054017003022DB69008E4E0FB25E025E01A
:1018C00024C7F582E43408F583E0FCA3E0FDA3E03F
:1018D000FEA3E0FF782BE6F9F8128145EF54017082
:1018E00004C2008002D200EB64057076E9640A70DD
:1018F0007130002C9008E9F09008E9E0FFC39410E3
:10190000501874062FF582E43407F583E060030273
:101910002DBC9008E9E004F080DED210D2148042A1
:101920009008E4E0FFAD0112943FC210C219E478C0
:101930001CF608F69008E9F09008E9E0FFC394105F
:10194000502074062FF582E43407F583E4F07446E2
:101950002FF582E43407F583E4F09008E9E004F021
:1019600080D69008E4E064016003021B3B782BE61C
:1019700064116003021B3B201003021B3B20000389
:10198000022DBC7869E6FFC39420405FEFD3942416
:101990005059301703022DBCD217E47863F6C226E3
:1019A000D21B8F1112A0BFE511B420089007A974B3
:1019B000ECF08032E511B421089007A974E6F080BC
:1019C00025E511B422089007A974E8F08018E51104
:1019D000B423089007A974EAF0800BE511B424063B
:1019E0009007A974DAF078697630227869E6643075
:1019F0006003022DBCE511B420047FEC8022E511C8
:101A0000B421047FE68019E511B422047FE8801038
:101A1000E511B423047FEA8007E511B424057FDAD9
:101A200012BEBFE49008E9F09008E9E0FEC39455C7
:101A300050619007A9E0FFEE75F003A4FD74F62E47
:101A4000F582E43404F583E0FB12BDC09007A9E001
:101A5000FF9008E9E0FE75F003A404FD748B2EF5F9
:101A600082E43405F583E0FB12BDC09007A9E0FFD6
:101A70009008E9E0FE75F003A42402FD74202EF521
:101A800082E43406F583E0FB12BDC09008E9E0046F
:101A9000F080959007A9E0FF90054BE0FB7DFF12D9
:101AA000BDC09007A9E004FF9005E0E0FBE4FD1253
:101AB000BDC09007A9E004FF900675E0FB7D011210
:101AC000BDC09008E97456F09007A9E004FF9008A3
:101AD000E9E0FE75F003A4FD74F62EF582E434040B
:101AE000F583E0FB12BDC09007A9E004FF9008E970
:101AF000E0FE75F003A404FD748B2EF582E434053A
:101B0000F583E0FB12BDC09007A9E004FF9008E94F
:101B1000E0FE75F003A42402FD74202EF582E43467
:101B200006F583E0FB12BDC09008E9E004F0E0C3D5
:101B3000948A4094C2177869A61122201703021FC5
:101B40006D200003021CE89008E4E0B40507782B40
:101B5000E6640A600E9008E4E0FFB40109782BE621
:101B6000B41103C21B22EF75F017A4782B2690083E
:101B7000E9F0E0FF24F6F582E43404F583E0FE703A
:101B800020748B2FF582E43405F583E07013900800
:101B9000E9E02420F582E43406F583E07003021DB9
:101BA0004CEEF470239008E9E0FF248BF582E434D6
:101BB00005F583E0B4FF1174202FF582E43406F5B7
:101BC00083E0B4FF03021D819008E9E0FF24F6F5ED
:101BD00082E43404F583E07021748B2FF582E434C1
:101BE00005F583E070149008E9E02420F582E434E0
:101BF00006F583E0B4FF03021DC19008E9E0FF246D
:101C0000F6F582E43404F583E0FE7021748B2FF541
:101C100082E43405F583E0B4FF139008E9E0242062
:101C2000F582E43406F583E07003021E02EEF470E0
:101C3000219008E9E0FF248BF582E43405F583E088
:101C4000701074202FF582E43406F583E0700302EF
:101C50001E429008E9E0FF24F6F582E43404F5839F
:101C6000E07022748B2FF582E43405F583E0B4FF35
:101C7000149008E9E02420F582E43406F583E0B40A
:101C8000FF03021E839008E9E0FF24F6F582E434A6
:101C900004F583E0FEF47021748B2FF582E43405A3
:101CA000F583E070149008E9E02420F582E434061E
:101CB000F583E0B4FF03021ED2EEF46003021F3F7F
:101CC0009008E9E0FF248BF582E43405F583E0B465
:101CD000FF1374202FF582E43406F583E0600302DD
:101CE0001F3F021F21021F3F301B03022DB6900829
:101CF000E4E0B40507782BE6640A60159008E4E098
:101D000064016003022DB6782BE664116003022D96
:101D1000B69008E4E075F017A4782B269008E9F057
:101D2000E0FF24F6F582E43404F583E0FE702E74BF
:101D30008B2FF582E43405F583E070219008E9E00B
:101D40002420F582E43406F583E070119008E9E080
:101D500024F6F582E43404F583E4021E92EEF47076
:101D6000319008E9E0FF248BF582E43405F583E047
:101D7000B4FF1F74202FF582E43406F583E0B4FF2E
:101D8000119008E9E024F6F582E43404F583E402D6
:101D90001E119008E9E0FF24F6F582E43404F5838F
:101DA000E0702F748B2FF582E43405F583E0702208
:101DB0009008E9E02420F582E43406F583E0B4FFDE
:101DC000119008E9E024F6F582E43404F583E40296
:101DD0001EE19008E9E0FF24F6F582E43404F5837F
:101DE000E0FE703C748B2FF582E43405F583E0B49B
:101DF000FF2E9008E9E02420F582E43406F583E024
:101E0000701E9008E9E024F6F582E43404F583744A
:101E1000FFF0748B2FF582E43405F583E4021EEEA7
:101E2000EEF4702F9008E9E0FF248BF582E434058E
:101E3000F583E0701E74202FF582E43406F583E00C
:101E400070119008E9E024F6F582E43404F583E4A7
:101E5000021F309008E9E0FF24F6F582E43404F52F
:101E600083E0703D748B2FF582E43405F583E0B494
:101E7000FF2F9008E9E02420F582E43406F583E0A2
:101E8000B4FF1E9008E9E024F6F582E43404F583FB
:101E900074FFF0748B2FF582E43405F583E4021FA0
:101EA0005C9008E9E0FF24F6F582E43404F583E071
:101EB000FEF4704A748B2FF582E43405F583E070EC
:101EC0003D9008E9E02420F582E43406F583E0B48F
:101ED000FF2C9008E9E024F6F582E43404F58374DD
:101EE000FFF0748B2FF582E43405F58374FFF074F2
:101EF000202FF582E43406F583E4F0022DB6EEF4EB
:101F0000703D9008E9E0FF248BF582E43405F58309
:101F1000E0B4FF2B74202FF582E43406F583E070E3
:101F20001E9008E9E024F6F582E43404F58374FF9A
:101F3000F0748B2FF582E43405F58374FF801D90D7
:101F400008E9E0FF24F6F582E43404F58374FFF039
:101F5000748B2FF582E43405F58374FFF074202F21
:101F6000F582E43406F58374FFF0022DB69008E4A0
:101F7000E0FF7026782BE6FD640F701E30101B30DA
:101F80000002B21A12943F7869E664086003022DD9
:101F9000BC200003022DBC02262E301A03022DBCE9
:101FA0009008E4E0FF7026782BE6FD6410701E3088
:101FB000101B300002B21112943F7869E664086089
:101FC00003022DBC200003022DBC02262E9008E443
:101FD000E0FF7026782BE6FD6411701E30101B3078
:101FE0000002B22E12943F7869E664086003022D65
:101FF000BC200003022DBC02262E9008E4E0640100
:102000007020782BE6B4101A301017200003022D30
:10201000BC786906E6D394134002E4F612BBDDD225
:1020200013229008E4E0FF64027026782BE6FD643A
:1020300003701E30101B300002B21612943F7869F4
:10204000E664086003022DBC200003022DBC0226BA
:102050002E9008E4E064027041782BE66410703A38
:10206000301037300015785C06E6C394084002E46F
:10207000F6785CE6FF129DEB12BACA9008E4E0FF26
:10208000782BE6FD12943F7869E664086003022D20
:10209000BC200003022DBC02262E9008E4E0B4010F
:1020A00013782BE6B4020D30100A300007786976F9
:1020B00020D213229008E4E0FFB40113782BE6B499
:1020C000030D30100A30000778697621D21322EF11
:1020D000B40113782BE6B4040D30100A30000778F1
:1020E000697622D213229008E4E0B40113782BE63B
:1020F000B4050D30100A30000778697623D2132218
:102100009008E4E0FFB40113782BE6B4060D30101C
:102110000A30000778697624D21322EF6404703DF8
:10212000782BE664117036301033300011781E06BB
:10213000E6D394044002760412BACA12AC41900865
:10214000E4E0FF782BE6FD12943F7869E6640860CE
:1021500003022DBC200003022DBC02262E9008E4B1
:10216000E06405703B782BE6641170343010313038
:10217000000F781EE6D3940040011612BACA12ACC2
:10218000419008E4E0FF782BE6FD12943F7869E681
:1021900064086003022DBC200003022DBC02262E21
:1021A0009008E4E064057051782BE66412704A30C0
:1021B00010477869E6FFC39413501FEF6410601A4C
:1021C000300017781BE6940040011612BACA781B3B
:1021D000E67007D22A751709D2269008E4E0FF7846
:1021E0002BE6FD12943F7869E664086003022DBC7B
:1021F000200003022DBC02262E9008E4E064057046
:1022000054782BE66410704D30104A7869E6FFC3AD
:1022100094135022EF6410601D30001A781B06E6FC
:1022200094044002760412BACA781BE6B40407D2BA
:102230002A751709D2269008E4E0FF782BE6FD12F4
:10224000943F7869E664086003022DBC2000030215
:102250002DBC02262E9008E4E0FF640560030223F3
:1022600035782BE6640B600302233520100302232C
:1022700035200003022DBC781F06E6D394084002E7
:10228000E4F6781FE6FE701190FF9274B0F0A3742C
:1022900010F0A3F0D2FF022330EEB4011090FF92B1
:1022A00074B0F0A37410F0A3F0C2FF8026EEB40265
:1022B0001090FF9274B0F0A37410F0A3F0C2FF80EE
:1022C00029EEB4031390FF9274B0F0A37410F0A33E
:1022D000F0D2FFD2FEC2FD22EEB4041390FF92743E
:1022E000B0F0A37410F0A3F0D2FFC2FED2FD22EE34
:1022F000B4051090FF9274B0F0A37410F0A3F0C274
:10230000FF8012EEB4061390FF9274B0F0A3741025
:10231000F0A3F0D2FFD2FED2FD22EE6408600302E9
:102320002DBC90FF9274B0F0A37410F0A3F0C2FF24
:10233000C2FEC2FD22EF701B782BE6B401153010EF
:1023400012E4781C300006F608F6D21922F608F6D8
:10235000C219229008E4E0FF7045782BE6FD640383
:10236000703D30102D30000B9007CB7494F0A374A7
:10237000018006E49007CBF0A3F0D20312943F78DB
:1023800069E664086003022DBC200003022DBC0234
:10239000262E20000A9007CBE0B494030226739007
:1023A00008E4E0FF7045782BE6FD6404703D3010D2
:1023B0002D30000B9007CB7421F0A374028006E44B
:1023C0009007CBF0A3F0D20312943F7869E664083B
:1023D0006003022DBC200003022DBC02262E20002B
:1023E0000A9007CBE0B421030226739008E4E0FFD3
:1023F0007045782BE6FD6405703D30102D30000BE4
:102400009007CB7492F0A374018006E49007CBF0A0
:10241000A3F0D20312943F7869E664086003022DAA
:10242000BC200003022DBC02262E20000A9007CB00
:10243000E0B492030226739008E4E0FF7045782B25
:10244000E6FD6406703D30102D30000B9007CB7414
:1024500083F0A374018006E49007CBF0A3F0D203CD
:1024600012943F7869E664086003022DBC200003E3
:10247000022DBC02262E20000A9007CBE0B4830375
:102480000226739008E4E0FF7043782BE6FD6407B2
:10249000703B30102B3000099007CB74B6F0E4800D
:1024A00005E49007CBF0A3F0D20312943F7869E6DD
:1024B00064086003022DBC200003022DBC02262EFE
:1024C00020000A9007CBE0B4B6030226739008E41C
:1024D000E0FF7043782BE6FD6408703B30102B3032
:1024E00000099007CB74B5F0E48005E49007CBF0C9
:1024F000A3F0D20312943F7869E664086003022DCA
:10250000BC200003022DBC02262E20000A9007CB1F
:10251000E0B4B5030226739008E4E0FF7043782B23
:10252000E6FD6409703B30102B3000099007CB7436
:10253000CDF0E48005E49007CBF0A3F0D203129431
:102540003F7869E664086003022DBC200003022D79
:10255000BC02262E20000A9007CBE0B4CD03022651
:10256000739008E4E0FF7043782BE6FD640A703B4B
:1025700030102B3000099007CB74B7F0E48005E4ED
:102580009007CBF0A3F0D20312943F7869E6640879
:102590006003022DBC200003022DBC02262E200069
:1025A0000A9007CBE0B4B7030226739008E4E0FF7B
:1025B0007042782BE6FD640B703A30102A30000927
:1025C0009007CB74E2F0E48005E49007CBF0A3F031
:1025D000D20312943F7869E664086003022DBC20A0
:1025E0000003022DBC804720000A9007CBE0B4E234
:1025F000030226739008E4E0FF704B782BE6FD643D
:102600000C70433010343000099007CB74EAF0E4CA
:102610008005E49007CBF0A3F0D20312943F7869D1
:10262000E664086003022DBC200003022DBC900864
:10263000E4E0FF782BE6FD02AEDE2000099007CB38
:10264000E0B4EA02802D9008E4E0702E782BE66476
:102650000D70273010133000099007CB74E9F0E4B7
:102660008013E49007CBF0800C20000E9007CBE0A5
:10267000B4E907E4F0A3F0D203229008E4E0FC758B
:10268000F017A4FE782BE6FD2E9007A8F020160385
:102690000227BAECB4020CEDB403089007C57452DB
:1026A00002272D9008E4E0B4030D782BE6B402076E
:1026B0009007C5745080769008E4E0B4030D782B41
:1026C000E6B403079007C5745180629008E4E0B453
:1026D000030D782BE6B404079007C5744F804E9025
:1026E00008E4E0B4040D782BE6B411079007C57434
:1026F0001A803A9008E4E0B4050D782BE6B4100790
:102700009007C5740480269008E4E0B4050D782B8A
:10271000E6B411079007C5741680129008E4E0B47F
:10272000050F782BE6B412099007C57407F0022D47
:10273000589008E4E0F975F017A4FF782BE67C00C8
:102740002FFFEC35F0FEEF7802C333CE33CED8F94D
:10275000FBAA062400F58274E03AF5831281779093
:1027600007C5EFF074002BF58274E03AF58312810F
:10277000777808128145E49007C6EFF0E975F01705
:10278000A4FF782BE67C002FFFEC35F0FEEF7802FB
:10279000C333CE33CED8F9FBAA062400F58274E009
:1027A0003AF58312817778101281459007C7EFF0D0
:1027B00074002BF58274E0022B459008E4E0640479
:1027C0006003022853782BE664026003022853E07A
:1027D000F975F017A4FFE67C002FFFEC35F0FEEF53
:1027E0007802C333CE33CED8F9FBAA062457F5823C
:1027F00074643AF5831281779007C5EFF074572B14
:10280000F58274643AF5831281777808128145E481
:102810009007C6EFF0E975F017A4FF782BE67C006F
:102820002FFFEC35F0FEEF7802C333CE33CED8F96C
:10283000FBAA062457F58274643AF58312817778EF
:10284000101281459007C7EFF074572BF58274641E
:10285000022B459008E4E0640360030228EC782B27
:10286000E6640D60030228ECE0F975F017A4FFE6BA
:102870007C002FFFEC35F0FEEF7802C333CE33CE71
:10288000D8F9FBAA062457F58274643AF5831281BD
:10289000779007C5EFF074572BF58274643AF5838F
:1028A0001281777808128145E49007C6EFF0E97548
:1028B000F017A4FF782BE67C002FFFEC35F0FEEF3D
:1028C0007802C333CE33CED8F9FBAA062457F5825B
:1028D00074643AF58312817778101281459007C7A6
:1028E000EFF074572BF5827464022B459008E4E0F6
:1028F0006003022983782BE664136003022983E0D6
:10290000F975F017A4FFE67C002FFFEC35F0FEEF21
:102910007802C333CE33CED8F9FBAA062457F5820A
:1029200074643AF5831281779007C5EFF074572BE2
:10293000F58274643AF5831281777808128145E450
:102940009007C6EFF0E975F017A4FF782BE67C003E
:102950002FFFEC35F0FEEF7802C333CE33CED8F93B
:10296000FBAA062457F58274643AF58312817778BE
:10297000101281459007C7EFF074572BF5827464ED
:10298000022B459008E4E06003022A1A782BE664E3
:10299000146003022A1AE0F975F017A4FFE67C0020
:1029A0002FFFEC35F0FEEF7802C333CE33CED8F9EB
:1029B000FBAA062457F58274643AF5831281779056
:1029C00007C5EFF074572BF58274643AF5831281D2
:1029D000777808128145E49007C6EFF0E975F017A3
:1029E000A4FF782BE67C002FFFEC35F0FEEF780299
:1029F000C333CE33CED8F9FBAA062457F5827464CC
:102A00003AF58312817778101281459007C7EFF06D
:102A100074572BF5827464022B459008E4E0600340
:102A2000022AB1782BE664156003022AB1E0F97539
:102A3000F017A4FFE67C002FFFEC35F0FEEF7802E4
:102A4000C333CE33CED8F9FBAA062457F58274647B
:102A50003AF5831281779007C5EFF074572BF58212
:102A600074643AF5831281777808128145E49007FF
:102A7000C6EFF0E975F017A4FF782BE67C002FFF76
:102A8000EC35F0FEEF7802C333CE33CED8F9FBAA93
:102A9000062457F58274643AF58312817778101210
:102AA00081459007C7EFF074572BF5827464022BB1
:102AB000459008E4E06003022B59782BE664166029
:102AC00003022B59E0F975F017A4FFE67C002FFFF5
:102AD000EC35F0FEEF7802C333CE33CED8F9FBAA43
:102AE000062457F58274643AF5831281779007C5FE
:102AF000EFF074572BF58274643AF583128177787E
:102B000008128145E49007C6EFF0E975F017A4FFBD
:102B1000782BE67C002FFFEC35F0FEEF7802C33314
:102B2000CE33CED8F9FBAA062457F58274643AF561
:102B30008312817778101281459007C7EFF07457A0
:102B40002BF58274643AF5831281777818128145E7
:102B5000E49007C8EFF0022D929008E4E0F975F0D8
:102B600017A4FF782BE67C002FFFEC35F0FEEF7802
:102B700002C333CE33CED8F9FBAA062400F5827403
:102B8000E03AF5831281779007C5EFF074002BF5DA
:102B90008274E03AF5831281777808128145E490D7
:102BA00007C6EFF0E975F017A4FF782BE6F97C0073
:102BB0002FFFEC35F0FEEF7802C333CE33CED8F9D9
:102BC000FBAA062400F58274E03AF5831281777837
:102BD000101281459007C7EFF074002BF58274E066
:102BE0003AF58312817778181281459007C8EFF083
:102BF0009007C5E064CD6003022D5D200003022D27
:102C0000429008E4E0F5138912E4F50FE51375F03E
:102C100017A47C002512FFEFFEE42404FFE43EFE2F
:102C2000E4FD12B99E8F10E5107003022D95F4702B
:102C300003022D95D2127F147E0012BD5AE5137542
:102C4000F017A47C002512FFEC35F0EF7F00FEE4C6
:102C5000FD12B99E9007C2EFF07F147E0012BD5A9C
:102C6000E51375F017A47C002512FFEFFEE42401A4
:102C7000FFE43EFEE4FD12B99E9007C3EFF07F141F
:102C80007E0012BD5AE51375F017A47C002512FFD3
:102C9000EFFEE42402FFE43EFEE4FD12B99E90073D
:102CA000C4EFF07F147E0012BD5AE51375F017A42F
:102CB0007C002512FFEFFEE42403FFE43EFEE4FD6A
:102CC00012B99E9007C9EFF0E4F508F5099007C323
:102CD000E0750800F5099007C2E0FEEE4208E5093C
:102CE000B4FF09E508B4FF04D2158002C215E50956
:102CF0004508700AD21874FFF508F5098002C21859
:102D0000E4F50AF50B9007C9E0750A00F50B90078A
:102D1000C4E0547FFEEE420AE49008E9F09008E92E
:102D2000E0FFC394104003022DBC900936E0FCA3E1
:102D3000E02FF582E43CF583E4F09008E9E004F04C
:102D400080DB301550C215E4F508F509C212900772
:102D5000C5E510F0D202C200125B3280383018256F
:102D6000C218E49008E9F09008E9E0FFC39410501D
:102D70001474062FF582E43407F583E4F09008E933
:102D8000E004F080E230120AE4F508F509C212020C
:102D9000B59E12928B9008E4E0FF782BE6FD12942A
:102DA0003F7869E6B4080F30000C9008E4E0FF7843
:102DB0002BE6FD12AEDE782B06021890223013624D
:102DC000E4F5B1C21312BBDDE49008F0F09008F016
:102DD000E0FFC3948A502C74F62FF582E43404F596
:102DE00083E4F0748B2FF582E43405F583E4F0740A
:102DF000202FF582E43406F583E4F09008F0E00437
:102E0000F080CA7869E6FFC394205004EFB413053C
:102E100012A0BF8003129D55785CE6FF129DEB0265
:102E2000BACA7862E6FFC39417400302303175CD09
:102E3000FE75CC6F75CBFE75CA6FD282301C030253
:102E40003B55302B03022F827869E6B40D03022E26
:102E5000D47869E6B40A127862E670037857067887
:102E600062E6FF12AA1502300A7869E6B4020A780F
:102E700062E6FF12A92D02300A7869E6B4050D78E2
:102E800062E6FF12C04412AAF702300A7869E670BF
:102E90000A7862E6FF1285B902300A7869E6B4085A
:102EA0000A7862E6FF128D4D02300A7869E6B410A6
:102EB0000A7862E6FF1298C502300A7869E6B40F14
:102EC0000A7862E6FF128B4502300A7869E6B4019F
:102ED0000F30110612BBDD02300A124B3C02300AE1
:102EE0007869E6B40E0A7862E6FF12A59D02300A00
:102EF0007869E6B409127862E6700378570678625A
:102F0000E6FF12A14C02300A7869E6B40612786234
:102F1000E670037857067862E6FF127A3F02300ABD
:102F20007869E6B412127862E67003785706786220
:102F3000E6FF129FA302300A7869E6B404127862B1
:102F4000E670037857067862E6FF129C2402300A86
:102F50007869E6B403127862E670037857067862FF
:102F6000E6FF12A03102300A7869E6B4070A7862F7
:102F7000E6FF1295DA02300A7869E6B40C0A786244
:102F8000E6FF127F0A02300A7869E6B40B0978621C
:102F9000E6FF12753780737869E6B411117862E63E
:102FA00070037857067862E6FF12A7AF805C7869F5
:102FB000E66440705512BBDDE49008F0F09008F034
:102FC000E0FFC3948A504374202FF582E43406F561
:102FD00083E09008F06006E01288058025E0FF2479
:102FE00020F582E43406F583E4F0748B2FF582E457
:102FF0003405F583E4F074F62FF582E43404F583A8
:10300000E4F09008F0E004F080B3781EE67003026C
:103010003B4A301103023B4AB4040C90FF957418EC
:10302000F090FFB57401F07862E6FF12688E023B03
:103030004A7862E664177031D28278570612BBDD97
:1030400053A0C05398C05390C075CDEE75CCCF75CA
:10305000CBEE75CACF12BBDD53A0C05398C05390BE
:10306000C0D208129699023B4A7862E6641860035F
:1030700002323D75CDFE75CC6F75CBFE75CA6F788B
:103080001FE6640760030231C3786706E6C394FE57
:103090004011E4F6B22830280A1806E6D394064018
:1030A00002E4F63028077867E608F68009C374FF63
:1030B0007867967968F77866E6FF701E90FF9474DB
:1030C00018F07868E690FFB4F090FF9274B0F0A327
:1030D0007410F0C2FEC2FD0231C3EFB4012090FFB4
:1030E000937418F07868E690FFB3F090FF9274B094
:1030F000F090FF947410F0C2FFC2FD0231C37866F5
:10310000E6FFB4021C90FF9274B8F07868E690FF76
:10311000B2F090FF937410F0A3F0C2FFC2FE023130
:10312000C3EFB4032390FF947418F07868E6FF901F
:10313000FFB4F090FF937418F090FFB3EFF090FF9E
:103140009274B0F0C2FD807B7866E6FFB4042390F1
:10315000FF947418F07868E6FE90FFB4F090FF9248
:1031600074B8F090FFB2EEF090FF937410F0C2FECE
:103170008051EFB4052390FF9274B8F07868E6FFB1
:1031800090FFB2F090FF937418F090FFB3EFF090BF
:10319000FF947410F0C2FF802A7866E6B40624908B
:1031A000FF9274B8F07868E6FF90FFB2F090FF935A
:1031B0007418F090FFB3EFF090FF947418F090FF44
:1031C000B4EFF012BBDDC282301712786306E6D38B
:1031D00094324004E4F6B226302625801D302A269B
:1031E000786306E6D3940F400EE4F6E51760041505
:1031F000178002C22AB22630260653A0E0023B4ABC
:1032000043A01F023B4AE51630E004D2A08002C270
:10321000A0E51630E104D2A18002C2A1E51630E299
:1032200004D2A28002C2A2302F04D2A38002C2A381
:10323000302E05D2A4023B4AC2A4023B4A7862E681
:10324000B4191DD28275CDFE75CC6F75CBFE75CAD3
:103250006F12BBDD53A0C05398C05390C0023B4ACD
:103260007862E6641A6003023B4A75CDFE75CC6F46
:1032700075CBFE75CA6FD282302B03023B4A786948
:10328000E6640D6003023B33785CE6FF7002802F3A
:10329000EFB401028033EFB40202803BEFB40302CB
:1032A0008042EFB40402804AEFB405028057EFB4C5
:1032B00006028062EF640770677861E6FF7006902F
:1032C00008F1F08034EFB4010AE49008F1F0A3743F
:1032D000FF8039EFB402099008F174FFF0E4803CFC
:1032E000EFB4030AE49008F1F0A374FF802FEFB469
:1032F000040F9008F174FFF0E4A3F0A374FFF080D2
:103300001FEFB4050D9008F174FFF0A3F0E4A3F0F3
:10331000800EEFB4060A9008F174FFF0A3F0A3F05A
:10332000785A06781BE62401FFE433FE785AE6D388
:103330009FEE6480F87480985003023B4AE4785A08
:10334000F67865E6940B400302353B9008F1E0FF08
:10335000E6FE24F6F582E43404F583EFF09008F2FB
:10336000E0FD748B2EF582E43405F583EDF09008D2
:10337000F3E0FC74202EF582E43406F583ECF0745F
:103380000D2EF582E43405F583E4F074A22EF58267
:10339000E43405F583E4F074372EF582E43406F561
:1033A00083E4F074242EF582E43405F583EFF074A1
:1033B000B92EF582E43405F583EDF0744E2EF582D6
:1033C000E43406F583ECF0743B2EF582E43405F525
:1033D00083E4F074D02EF582E43405F583E4F074D0
:1033E000652EF582E43406F583E4F09008F1E0FC04
:1033F00074522EF582E43405F583ECF09008F2E087
:10340000FD74E72EF582E43405F583EDF09008F3C2
:10341000E0F9747C2EF582E43406F583E9F07469F2
:103420002EF582E43405F583E4F074FE2EF582E493
:103430003405F583E4F074932EF582E43406F583C5
:10344000E4F0EEFB7A00C374169BFFE49AFE74F678
:103450002FF58274043EF583E4F0748B2FF58274AB
:10346000053EF583E4F074202FF58274063EF58363
:10347000E4F0C374169BFFE49AFE740D2FF582747A
:10348000053EF583ECF074A22FF58274053EF583BA
:10349000EDF074372FF58274063EF583E9F074245D
:1034A0002FF58274053EF583E4F074B92FF582742C
:1034B000053EF583E4F0744E2FF58274063EF583E5
:1034C000E4F09008F1E0FD743B2FF58274053EF5C1
:1034D00083EDF09008F2E0FC74D02FF58274053E85
:1034E000F583ECF074652FF58274063EF583E9F000
:1034F00074522FF58274053EF583E4F074E72FF5DE
:103500008274053EF583E4F0747C2FF58274063EE8
:10351000F583E4F074692FF58274053EF583EDF0D0
:1035200074FE2FF58274053EF583ECF074932FF54D
:103530008274063EF583E9F0023B147865E6F9C330
:10354000941740030237609008F1E0FFE6FE24F68E
:10355000F582E43404F583EFF09008F2E0FD748B1B
:103560002EF582E43405F583EDF09008F3E0FC7469
:10357000202EF582E43406F583ECF0740D2EF582EE
:10358000E43405F583EFF074A22EF582E43405F5FA
:1035900083EDF074372EF582E43406F583ECF09079
:1035A00008F1E0FF74242EF582E43405F583EFF092
:1035B0009008F2E0FD74B92EF582E43405F583ED50
:1035C000F09008F3E0FC744E2EF582E43406F583A7
:1035D000ECF0743B2EF582E43405F583EFF074D003
:1035E0002EF582E43405F583EDF074652EF582E462
:1035F0003406F583ECF09008F1E0FF74522EF5826A
:10360000E43405F583EFF09008F2E0FD74E72EF561
:1036100082E43405F583EDF09008F3E0FC747C2E31
:10362000F582E43406F583ECF074692EF582E43417
:1036300005F583EFF074FE2EF582E43405F583ED95
:10364000F074932EF582E43406F583ECF09008F1E3
:10365000E0FFEEFDC374169DFDE49400FC74F62DAE
:10366000F58274043CF583EFF09008F2E0FE748B71
:103670002DF58274053CF583EEF09008F3E0FB74C1
:10368000202DF58274063CF583EBF0740D2DF58248
:1036900074053CF583EFF074A22DF58274053CF5BA
:1036A00083EEF074372DF58274063CF583EBF090D1
:1036B00008F1E0FF74242DF58274053CF583EFF0EA
:1036C0009008F2E0FE74B92DF58274053CF583EEA6
:1036D000F09008F3E0FB744E2DF58274063CF58300
:1036E000EBF0743B2DF58274053CF583EFF074D05C
:1036F0002DF58274053CF583EEF074652DF582742A
:10370000063CF583EBF09008F1E0FF74522DF58252
:1037100074053CF583EFF09008F2E0FE74E72DF5B8
:103720008274053CF583EEF09008F3E0FB747C2D89
:10373000F58274063CF583EBF074692DF58274050F
:103740003CF583EFF074FE2DF58274053CF583EEB5
:10375000F074932DF58274063CF583EBF0023B1474
:10376000E9C39422400302394F7865E6FF24DFF570
:1037700082E43404F583E4F074742FF582E43405B4
:10378000F583E4F074092FF582E43406F583E4F060
:103790009008F1E0FFE6FE24F6F582E43404F583B8
:1037A000EFF09008F2E0FD748B2EF582E43405F51D
:1037B00083EDF09008F3E0FC74202EF582E43406EB
:1037C000F583ECF0740D2EF582E43405F583E4F016
:1037D00074A22EF582E43405F583E4F074372EF5F7
:1037E00082E43406F583E4F074242EF582E4340593
:1037F000F583EFF074B92EF582E43405F583EDF02E
:10380000744E2EF582E43406F583ECF0743B2EF50D
:1038100082E43405F583E4F074D02EF582E43405B7
:10382000F583E4F074652EF582E43406F583E4F064
:103830009008F1E0FF74522EF582E43405F583EF31
:10384000F09008F2E0FD74E72EF582E43405F5838C
:10385000EDF09008F3E0F9747C2EF582E43406F57F
:1038600083E9F0EEFBC3742D9BFBE49400FA74F63D
:103870002BF58274043AF583EFF0748B2BF5827488
:10388000053AF583EDF074202BF58274063AF58342
:10389000E9F0740D2BF58274053AF583E4F074A217
:1038A0002BF58274053AF583E4F074372BF58274B6
:1038B000063AF583E4F09008F1E0FF74242BF582DA
:1038C00074053AF583EFF09008F2E0FE74B92BF539
:1038D0008274053AF583EEF0744E2BF58274063A45
:1038E000F583E9F0743B2BF58274053AF583E4F037
:1038F00074D02BF58274053AF583E4F074652BF5EA
:103900008274063AF583E4F074522BF58274053A1A
:10391000F583EFF074E72BF58274053AF583EEF04A
:10392000747C2BF58274063AF583E9F074692BF503
:103930008274053AF583E4F074FE2BF58274053A3F
:10394000F583E4F074932BF58274063A023B107809
:1039500065E6C3942E4003023B14E6FF24DFF582A4
:10396000E43404F583E4F074742FF582E43405F54F
:1039700083E4F074092FF582E43406F583E4F074EF
:10398000F62FF582E43404F583E4F0748B2FF5828E
:10399000E43405F583E4F074202FF582E43406F571
:1039A00083E4F0740D2FF582E43405F583E4F074BC
:1039B000A22FF582E43405F583E4F074372FF58205
:1039C000E43406F583E4F074242FF582E43405F53D
:1039D00083E4F074B92FF582E43405F583E4F074E0
:1039E0004E2FF582E43406F583E4F0743B2FF58224
:1039F000E43405F583E4F074D02FF582E43405F562
:103A000083E4F074652FF582E43406F583E4F07402
:103A1000522FF582E43405F583E4F074E72FF58244
:103A2000E43405F583E4F0747C2FF582E43406F584
:103A300083E4F0C3742D9FFFE49400FE74F62FF529
:103A40008274043EF583E4F0748B2FF58274053E96
:103A5000F583E4F074202FF58274063EF583E4F0DC
:103A6000740D2FF58274053EF583E4F074A22FF5F2
:103A70008274053EF583E4F074372FF58274063EB8
:103A8000F583E4F074242FF58274053EF583E4F0A9
:103A900074B92FF58274053EF583E4F0744E2FF56A
:103AA0008274063EF583E4F0743B2FF58274053E84
:103AB000F583E4F074D02FF58274053EF583E4F0CD
:103AC00074652FF58274063EF583E4F074522FF589
:103AD0008274053EF583E4F074E72FF58274053EA9
:103AE000F583E4F0747C2FF58274063EF583E4F0F0
:103AF00074692FF58274053EF583E4F074FE2FF5AA
:103B00008274053EF583E4F074932FF58274063ECB
:103B1000F583E4F0786506E6D3942D402DE4F6783D
:103B20005CE664077024786106E6D39406401BE4E3
:103B3000F680177869E6B40A0812BBDD12BFA480CC
:103B4000097869E6B4020312AE2A786206E6C394E5
:103B50001B4002E4F622900935E0FF6404701EF079
:103B6000A37411F0A3E4F0900936E0FCA3E0F58221
:103B70008C83E0F516D22343C8040244BBEFB4069D
:103B800008E4900935F00244BB900935E0640970FF
:103B900028F0A37411F0A3E4F0900936E0FEA3E04E
:103BA000FFF5828E83E0640560030244C1A3E02434
:103BB0008B60030244C102C1A9900935E0640A6028
:103BC00003023F9BF0A37411F0A3E4F0900917F0F7
:103BD000900936E0FEA3E0F5828E83A3E0FFB48077
:103BE000099009177401F0023F98EF640360030223
:103BF0003CE49009177403F0900936E0FEA3E0FF5F
:103C0000F5828E83A3A3E0786DF676018F828E8392
:103C1000A3A3A3E0900927F0740164016003023FAD
:103C200098E064016003023F987FE012BEBF7FE22C
:103C300012BEBFE4900903F0A3F0900903E0FEA3D5
:103C4000E0FFFDE42FF58274DC3EF583E493FB7F17
:103C5000E012BDC0900904E004F07006900903E092
:103C600004F0C3900903E0940140CFE4900903F00D
:103C7000A3F0900903E0FEA3E0FFFDE42FF58274BA
:103C8000DD3EF583E493FB7FE112BDC0900904E0C3
:103C900004F07006900903E004F0C3900903E09477
:103CA0000140CFE4900903F0A3F0900903E0FEA3E4
:103CB000E0FFFDE42FF58274DE3EF583E493FB7FA5
:103CC000E212BDC0900904E004F07006900903E020
:103CD00004F0C3900904E09428900903E0940040A4
:103CE000C9023F98900936E0FEA3E0F5828E83A3D7
:103CF000E064047031D22412BBDD9009177404F023
:103D0000900936E0FEA3E0F5828E83A3A3E090093C
:103D100016F064016003023F987FE012BEBF7FE2AD
:103D200012BEBF023F98900936E0FEA3E0FFF58285
:103D30008E83A3E0640570599009177405F08F8293
:103D40008E83A3A3E0900916F08F828E83A3A3A392
:103D5000E0900938F0900936A3E02404F582E43EAF
:103D6000F583E0FF90092CF0BF010DE4F514F51583
:103D7000D22253A8FE12BBDD900938E024FFFFE4F5
:103D800034FFEF7F00FE3395E0FDFC12BF79023F68
:103D900098900936E0FEA3E0F5828E83A3E0640AE2
:103DA0006003023E2EC224900936A3E0FFF5828E06
:103DB00083A3A3E07869F68F828E83A3A3A3E07820
:103DC0001EF6900936E0FEA3E0FF2405F582E43EEE
:103DD000F583E0785CF6EF2404F582E43EF583E0B9
:103DE000FF7006781B76048026EFB40106781B76F8
:103DF00003801CEFB40206781B76028012EFB40336
:103E000006781B76018008EFB40404E4781BF612F0
:103E1000AC417869E6B4131112BBDDE47862F67F39
:103E2000D812BEBFD21CE4F5B1D213023F9890095C
:103E300036E0FEA3E0F5828E83A3E0640C6003020B
:103E40003F8612BBDDE47862F6F5B1900936E0FEFC
:103E5000A3E0FFF5828E83A3A3A3E0900927F0C31C
:103E600094555054E075F003A42402FDEF2404F5AA
:103E700082E43EF583E0FB7FD812BDC0900927E0C5
:103E800075F003A404FD900936E0FEA3E02405F5D7
:103E900082E43EF583E0FB7FD812BDC0900927E0A5
:103EA00075F003A4FD900936E0FEA3E02406F58238
:103EB000E43EF583E0FB804B900927E06455704AAF
:103EC000900936E0FEA3E02404F582E43EF583E0A9
:103ED000FB7D017FD912BDC0900936E0FEA3E0242E
:103EE00005F582E43EF583E0FBE4FD7FD912BDC019
:103EF000900936E0FEA3E02406F582E43EF583E077
:103F0000FB7DFF7FD812BDC08071900927E0FFC301
:103F1000948A5067EF75F003A42402FD900936E0FF
:103F2000FEA3E02404F582E43EF583E0FB7FD91292
:103F3000BDC0900927E024AB75F003A4FD900936BD
:103F4000E0FEA3E02405F582E43EF583E0FB7FD9A3
:103F500012BDC0900927E075F003A4FD900936E07A
:103F6000FEA3E02406F582E43EF583E0FB7FD91250
:103F7000BDC0900927E0B48902D213900927E0B4AC
:103F80008916C21C8012900936E0FEA3E0F5828EED
:103F900083A3E0B40F02D2250244BB900935E0644C
:103FA0000B6003024327F0A37411F0A3E4F090091F
:103FB00036E0FEA3E0FFF5828E83A3E0900927F0B0
:103FC000900916E064016003024324900927E0FD94
:103FD000C3940B4003024090ED75F018A424EBFD50
:103FE0008F828E83A3A3E0FB7FE012BDC0900927E0
:103FF000E075F018A424EFFD900936E0FEA3E0F58B
:10400000828E83A3A3A3E0FB7FE012BDC0900927AB
:10401000E075F018A424F3FD900936E0FEA3E02437
:1040200004F582E43EF583E0FB7FE012BDC0900919
:1040300027E075F018A424F7FD900936E0FEA3E010
:104040002405F582E43EF583E0FB7FE012BDC090DD
:104050000927E075F018A424FBFD900936E0FEA3C3
:10406000E02406F582E43EF583E0FB7FE012BDC06C
:10407000900927E075F018A414FD900936E0FEA31E
:10408000E02407F582E43EF583E0FB7FE002432174
:10409000900927E0640B6003024128900936E0FE96
:1040A000A3E0F5828E83A3A3E0FB7DF37FE012BD46
:1040B000C0900936E0FEA3E0F5828E83A3A3A3E0BF
:1040C000FB7DF77FE012BDC0900936E0FEA3E0243F
:1040D00004F582E43EF583E0FB7DFB7FE012BDC08A
:1040E000900936E0FEA3E02405F582E43EF583E086
:1040F000FB7DFF7FE012BDC0900936E0FEA3E02407
:1041000006F582E43EF583E0FB7D037FE112BDC04E
:10411000900936E0FEA3E02407F582E43EF583E053
:10412000FB7D077FE1024321900927E0FFC394163E
:1041300040030241F4EF75F018A424EBFD9009361A
:10414000E0FEA3E0F5828E83A3A3E0FB7FE112BD36
:10415000C0900927E075F018A424EFFD900936E01F
:10416000FEA3E0F5828E83A3A3A3E0FB7FE112BD53
:10417000C0900927E075F018A424F3FD900936E0FB
:10418000FEA3E02404F582E43EF583E0FB7FE11228
:10419000BDC0900927E075F018A424F7FD900936FA
:1041A000E0FEA3E02405F582E43EF583E0FB7FE139
:1041B00012BDC0900927E075F018A424FBFD9009FA
:1041C00036E0FEA3E02406F582E43EF583E0FB7FC3
:1041D000E112BDC0900927E075F018A414FD900904
:1041E00036E0FEA3E02407F582E43EF583E0FB7FA2
:1041F000E1024321900927E06416600302428C909B
:104200000936E0FEA3E0F5828E83A3A3E0FB7DFBED
:104210007FE112BDC0900936E0FEA3E0F5828E83F7
:10422000A3A3A3E0FB7DFF7FE112BDC0900936E0B0
:10423000FEA3E02404F582E43EF583E0FB7D037FEA
:10424000E212BDC0900936E0FEA3E02405F582E449
:104250003EF583E0FB7D077FE212BDC0900936E0AA
:10426000FEA3E02406F582E43EF583E0FB7D0B7FB0
:10427000E212BDC0900936E0FEA3E02407F582E417
:104280003EF583E0FB7D0F7FE2024321900927E0AA
:1042900064176003024324900936E0FEA3E0F58230
:1042A0008E83A3A3E0FB7D137FE212BDC09009368D
:1042B000E0FEA3E0F5828E83A3A3A3E0FB7D177F3E
:1042C000E212BDC0900936E0FEA3E02404F582E4CA
:1042D0003EF583E0FB7D1B7FE212BDC0900936E016
:1042E000FEA3E02405F582E43EF583E0FB7D1F7F1D
:1042F000E212BDC0900936E0FEA3E02406F582E498
:104300003EF583E0FB7D237FE212BDC0900936E0DD
:10431000FEA3E02407F582E43EF583E0FB7D277FE2
:10432000E212BDC00244BB900935E0640C60030298
:1043300044B6F0A37411F0A3E4F0900936E0FAA3B8
:10434000E0FBF5828A83A3E0900927F0E4F514F5F9
:104350001590092CE0640160030244B4900938E030
:10436000FC900927E075F006A42400FFE5F03CCF9F
:1043700024FACF34FEFEE4FCFD8B828A83A3A3E003
:1043800090090DF012B39E7FD07E0712BD5A90099E
:1043900038E0FC900927E075F006A42400FFE5F062
:1043A0003CCF24FBCF34FEFEE4FCFD900936E0FA5E
:1043B000A3E0F5828A83A3A3A3E090090DF012B3D2
:1043C0009E7FD07E0712BD5A900938E0FC900927E5
:1043D000E075F006A42400FFE5F03CCF24FCCF34C8
:1043E000FEFEE4FCFD900936E0FAA3E02404F58229
:1043F000E43AF583E090090DF012B39E7FD07E077A
:1044000012BD5A900938E0FC900927E075F006A427
:104410002400FFE5F03CCF24FDCF34FEFEE4FCFD9C
:10442000900936E0FAA3E02405F582E43AF583E04A
:1044300090090DF012B39E7FD07E0712BD5A9009ED
:1044400038E0FC900927E075F006A42400FFE5F0B1
:104450003CCF24FECF34FEFEE4FCFD900936E0FAAA
:10446000A3E02406F582E43AF583E090090DF0120A
:10447000B39E7FD07E0712BD5A900938E0FC9009A8
:1044800027E075F006A42400FFE5F03CCF24FFCF21
:1044900034FEFEE4FCFD900936E0FAA3E02407F5C3
:1044A00082E43AF583E090090DF012B39E7FD07E4E
:1044B0000712BD5A8005E4900935F0539BF04397ED
:1044C0000422E4F5B1C2AFD2B712C08B12C1C8D278
:1044D0002B12C18912A1D912A515D28412C0AAD259
:1044E0002ED283C21AC216C22F786D7601D2AFE4E3
:1044F000F5B1301F06128332125FCC202303024B2A
:1045000030201D030248EBC21D53A8FE12BBDDD2B2
:104510002EC216C22FE4781FF6C21112AFDC7FE064
:1045200012BEBF7FE212BEBF7FD812BEBF7FEC12A9
:10453000BEBF7FE612BEBF7FE812BEBF7FEA12BEDB
:10454000BF7FDA12BEBFE4F5B1786DF6781B760254
:10455000781E7604785C76077869761012BACAD22B
:104560002B12A1D912A515E49008E1F0A3F0E4F50F
:10457000B19008E1E0FEA3E0FFFDE42FF58274B204
:104580003EF583E493FB7FEC12BDC09008E2E004AB
:10459000F070069008E1E004F0C39008E1E09401B7
:1045A00040CCE49008E1F0A3F0E4F5B19008E1E03C
:1045B000FEA3E0FFFDE42FF58274B33EF583E493A0
:1045C000FB7FED12BDC09008E2E004F07006900899
:1045D000E1E004F0C39008E1E0940140CCE49008ED
:1045E000E1F0A3F0E4F5B19008E1E0FEA3E0FFFD07
:1045F000E42FF58274B43EF583E493FB7FE612BDAD
:10460000C09008E2E004F070069008E1E004F0C316
:104610009008E1E0940140CCE49008E1F0A3F0E4DC
:10462000F5B19008E1E0FEA3E0FFFDE42FF5827410
:10463000B53EF583E493FB7FE712BDC09008E2E04E
:1046400004F070069008E1E004F0C39008E1E09403
:104650000140CCE49008E1F0A3F0E4F5B19008E16A
:10466000E0FEA3E0FFFDE42FF58274B63EF583E49F
:1046700093FB7FE812BDC09008E2E004F070069062
:1046800008E1E004F0C39008E1E0940140CCE4903C
:1046900008E1F0A3F0E4F5B19008E1E0FEA3E0FF4B
:1046A000FDE42FF58274B73EF583E493FB7FE912B6
:1046B000BDC09008E2E004F070069008E1E004F06C
:1046C000C39008E1E0940140CCE49008E1F0A3F04D
:1046D000E4F5B19008E1E0FEA3E0FFFDE42FF582F0
:1046E00074B83EF583E493FB7FEA12BDC09008E204
:1046F000E004F070069008E1E004F0C39008E1E007
:10470000940140CCE49008E1F0A3F0E4F5B1900806
:10471000E1E0FEA3E0FFFDE42FF58274B93EF583EE
:10472000E493FB7FEB12BDC09008E2E004F070065A
:104730009008E1E004F0C39008E1E0940140CCE48B
:104740009008E1F0A3F0E4F5B19008E1E0FEA3E009
:10475000FFFDE42FF58274B03EF583E493FB7FDA2E
:1047600012BDC09008E2E004F070069008E1E00499
:10477000F0C39008E1E0940140CCE49008E1F0A39C
:10478000F0E4F5B19008E1E0FEA3E0FFFDE42FF5D1
:104790008274B13EF583E493FB7FDB12BDC09008C9
:1047A000E2E004F070069008E1E004F0C39008E154
:1047B000E0940140CCE49008E1F0A3F0E4F5B1907E
:1047C00008E1E0FEA3E0FFFDE42FF58274C63EF5AC
:1047D00083E493FB7FD812BDC09008E2E004F07040
:1047E000069008E1E004F0C39008E1E0940140CCB9
:1047F000E49008E1F0A3F0E4F5B19008E1E0FEA355
:10480000E0FFFDE42FF58274C73EF583E493FB7F60
:10481000D912BDC09008E2E004F070069008E1E013
:1048200004F0C39008E2E094C89008E1E0940040EE
:10483000C6E49008E1F0A3F0E4F5B19008E1E0FEF1
:10484000A3E0FFFDE42FF58274DC3EF583E493FBE7
:104850007FE012BDC09008E2E004F070069008E12D
:10486000E004F0C39008E1E0940140CCE49008E15A
:10487000F0A3F0E4F5B19008E1E0FEA3E0FFFDE471
:104880002FF58274DD3EF583E493FB7FE112BDC01A
:104890009008E2E004F070069008E1E004F0C390B4
:1048A00008E1E0940140CCE49008E1F0A3F0E4F5E5
:1048B000B19008E1E0FEA3E0FFFDE42FF58274DE95
:1048C0003EF583E493FB7FE212BDC09008E2E00472
:1048D000F070069008E1E004F0C39008E2E094284C
:1048E0009008E1E0940040C643A80130251553A884
:1048F000FE12BBDD12AFDC7FD07E0712BD5A43A88B
:1049000001C225201203024B28E50B450A60030271
:104910004B28202103024B28C221E50FC3944F509E
:10492000030249BC9007C5E510F0D202C200125B39
:1049300032D3E5099401E5089400407830180674F4
:10494000FFF508F509E509150970021508E4F50FEA
:10495000E51375F017A47C002512FFEFFEE4240296
:10496000FFE43EFEE4FD12B99E12BD51E51375F061
:1049700017A47C002512FFEFFEE42403FFE43EFEB3
:10498000E4FD12B99E9007C912BD54E51375F017E6
:10499000A47C002512FFEFFEE42404FFE43EFEE4C5
:1049A000FD12B99E8F109007C4E0FF20E703024B71
:1049B00028024A49E4F50FC212024B28E5106006AE
:1049C000F46003024A6BD3E5099401E508940050B2
:1049D00003024A6130180674FFF508F509E5091568
:1049E0000970021508E4F50FE51375F017A47C00B3
:1049F0002512FFEFFEE42402FFE43EFEE4FD12B9BF
:104A00009E12BD51E51375F017A47C002512FFEF2F
:104A1000FEE42403FFE43EFEE4FD12B99E9007C9C4
:104A200012BD54E51375F017A47C002512FFEFFEAC
:104A3000E42404FFE43EFEE4FD12B99E8F109007CB
:104A4000C4E0FF20E703024B28E4F50AF50B9007CA
:104A5000C9E0750A00F50BEF547FFEEE420A024BE7
:104A600028E4F50FC212C208024B289007C4E09058
:104A700007C530E709E510F0D202D2008007E51043
:104A8000F0D202C200125B32E51375F017A47C006D
:104A90002512FFEC35F0EFFCE50F75F003A42400C0
:104AA000FFE5F03CCF2405CF3400FEE4FCFD12B955
:104AB0009E12BD51E51375F017A47C002512FFEC82
:104AC00035F0EFFCE50F75F003A42400FFE5F03CA2
:104AD000CF2406CF3400FEE4FCFD12B99E9007C936
:104AE00012BD54E51375F017A47C002512FFEC35B8
:104AF000F0EFFCE50F75F003A42400FFE5F03CCFD8
:104B00002407CF3400FEE4FCFD12B99E8F10E4F5BB
:104B10000AF50B9007C9E0750A00F50B9007C4E091
:104B2000547FFEEE420A050F300105C2011290D3F8
:104B30002020030244EF1295180244EF7857E6C391
:104B400094015003024FB3E4F6786EE6601F06E668
:104B5000B4050C7F0112BE5C12BBDDE4785BF67815
:104B60006EE6C3940F5003024FB3E4F622785A0660
:104B7000E62401FFE433FE781BE6FDD3EF9D74804D
:104B8000F86E985003024FB3E4785AF6051A051AE6
:104B9000E51AD394FA4016E4F51AB23730370E7896
:104BA0006E7601786106E694074002E4F630370637
:104BB000785BA61A8008C374FD951A785BF6785C5A
:104BC000E6B408004003024FB3904BD0F828287396
:104BD000024BE8024C2A024C6D024CB2024CF40229
:104BE0004D36024D7B024DBDE49008F6F09008F67C
:104BF000E0FFC3948A4003024FB3785BE6FE742063
:104C00002FF582E43406F583EEF0748B2FF582E401
:104C10003405F583E4F074F62FF582E43404F5836B
:104C2000E4F09008F6E004F080C3E49008F6F09019
:104C300008F6E0FFC3948A4003024FB3E0FE24204D
:104C4000F582E43406F583E4F0785BE6FD748B2EA0
:104C5000F582E43405F583EDF074F62FF582E43443
:104C600004F583E4F09008F6E004F080C2E49008D4
:104C7000F6F09008F6E0FFC3948A4003024FB37445
:104C8000202FF582E43406F583E4F0748B2FF5824F
:104C9000E43405F583E4F0785BE6FF9008F6E02461
:104CA000F6F582E43404F583EFF09008F6E004F0C2
:104CB00080C0E49008F6F09008F6E0FFC3948A40C4
:104CC00003024FB3785BE6FE74202FF582E43406CE
:104CD000F583EEF0748B2FF582E43405F583EEF066
:104CE00074F62FF582E43404F583E4F09008F6E0DE
:104CF00004F080C3E49008F6F09008F6E0FFC39457
:104D00008A4003024FB3785BE6FE74202FF582E4FD
:104D10003406F583EEF0748B2FF582E43405F583C9
:104D2000E4F074F62FF582E43404F583EEF0900895
:104D3000F6E004F080C3E49008F6F09008F6E0FF97
:104D4000C3948A4003024FB374202FF582E43406E3
:104D5000F583E4F0785BE6FE748B2FF582E434058E
:104D6000F583EEF09008F6E024F6F582E43404F5DD
:104D700083EEF09008F6E004F080C0E49008F6F0CE
:104D80009008F6E0FFC3948A4003024FB3785BE6D5
:104D9000FE74202FF582E43406F583EEF0748B2F39
:104DA000F582E43405F583EEF074F62FF582E434F1
:104DB00004F583EEF09008F6E004F080C37861E635
:104DC000B407004003024FB3904DCFF82828730278
:104DD0004DE4024E26024E69024EAE024EF0024FE4
:104DE00032024F74E49008F6F09008F6E0FFC394A6
:104DF0008A4003024FB3785BE6FE74202FF582E40D
:104E00003406F583EEF0748B2FF582E43405F583D8
:104E1000E4F074F62FF582E43404F583E4F09008AE
:104E2000F6E004F080C3E49008F6F09008F6E0FFA6
:104E3000C3948A4003024FB3E0FE2420F582E43499
:104E400006F583E4F0785BE6FD748B2EF582E4349E
:104E500005F583EDF074F62FF582E43404F583E470
:104E6000F09008F6E004F080C2E49008F6F09008B4
:104E7000F6E0FFC3948A4003024FB374202FF582FB
:104E8000E43406F583E4F0748B2FF582E43405F501
:104E900083E4F0785BE6FF9008F6E024F6F582E420
:104EA0003404F583EFF09008F6E004F080C0E4905D
:104EB00008F6F09008F6E0FFC3948A4003024FB36F
:104EC000785BE6FE74202FF582E43406F583EEF07D
:104ED000748B2FF582E43405F583EEF074F62FF52C
:104EE00082E43404F583E4F09008F6E004F080C333
:104EF000E49008F6F09008F6E0FFC3948A400302BD
:104F00004FB3785BE6FE74202FF582E43406F58318
:104F1000EEF0748B2FF582E43405F583E4F074F63B
:104F20002FF582E43404F583EEF09008F6E004F007
:104F300080C3E49008F6F09008F6E0FFC3948A502E
:104F40007274202FF582E43406F583E4F0785BE692
:104F5000FE748B2FF582E43405F583EEF09008F6AD
:104F6000E024F6F582E43404F583EEF09008F6E0F0
:104F700004F080C3E49008F6F09008F6E0FFC394D4
:104F80008A5030785BE6FE74202FF582E43406F513
:104F900083EEF0748B2FF582E43405F583EEF07424
:104FA000F62FF582E43404F583EEF09008F6E00481
:104FB000F080C62274902FF582E43402F583E0FE7F
:104FC0007832F6748B2FF582E43402F583E0FD1815
:104FD000F6EE75F017A42D18F674C62FF582E4349A
:104FE00003F583E070030250F7E6248AF582E43487
:104FF00000F583E0640160030250F720360302509D
:105000008E90015BE06401706674C62FF582E43413
:1050100003F583E4F07832E6FE74F12FF582E43490
:1050200001F583EEF0FD74972FF582E43402F583E9
:10503000EDF018E6FDEF75F006A4241FF582E434C8
:1050400001F583E5822EF582E43583F583EDF008E2
:10505000E6FEEF75F006A4243DF582E43401F58305
:10506000E5822EF582E43583F583EDF00250F77882
:1050700030E6FE248AF582E43400F583E4F0749C83
:105080002EF582E43402F583E024FBF0806974C6D7
:105090002FF582E43403F583E4F07832E6FE74F110
:1050A0002FF582E43401F583EEF0FD74972FF5823D
:1050B000E43402F583EDF018E6FDEF75F006A42464
:1050C0001FF582E43401F583E5822EF582E4358311
:1050D000F583EDF008E6FEEF75F006A4243DF582B9
:1050E000E43401F583E5822EF582E43583F583ED22
:1050F000F090015B7401F090015BE0700302530FCC
:1051000074972FF582E43402F583E0D394005003C2
:1051100002519474972FF582E43402F583E014F081
:1051200074972FF582E43402F583E075F017A42418
:1051300000F582E43400F5837831E6FE2582F582BD
:10514000E43583F5837401F074972FF582E434021B
:10515000F583E0FDEF75F006A4241FF582E4340129
:10516000F583E5822DF582E43583F583EEF07497BF
:105170002FF582E43402F583E0FDEF75F006A424F8
:105180003DF582E43401F583E5822DF582E4358333
:10519000F583EEF074F12FF582E43401F583E0C37A
:1051A0009405400302522874F12FF582E43401F58E
:1051B00083E004F074F12FF582E43401F583E075A7
:1051C000F017A42400F582E43400F5837831E6FE7C
:1051D0002582F582E43583F5837401F074F12FF5AF
:1051E00082E43401F583E0FDEF75F006A4241FF599
:1051F00082E43401F583E5822DF582E43583F5837D
:10520000EEF074F12FF582E43401F583E0FDEF75E3
:10521000F006A4243DF582E43401F583E5822DF502
:1052200082E43583F583EEF0E4FEEF75F006A42406
:105230003DF582E43401F583E5822EF582E4358381
:10524000F583E0D394004050EF75F006A4243DF5BB
:1052500082E43401F583E5822EF582E43583F5831B
:10526000E014F0EF75F006A4243DF582E43401F576
:1052700083E5822EF582E43583F583E0FDEE75F05B
:1052800017A42400F582E43400F583E5822DF5822D
:10529000E43583F5837401F0EF75F006A4241FF55F
:1052A00082E43401F583E5822EF582E43583F583CB
:1052B000E0C394165050EF75F006A4241FF582E465
:1052C0003401F583E5822EF582E43583F583E0042D
:1052D000F0EF75F006A4241FF582E43401F583E5B0
:1052E000822EF582E43583F583E0FDEE75F017A498
:1052F0002400F582E43400F583E5822DF582E4355F
:1053000083F5837401F00EEE6406600302522A22D4
:10531000900911E0FD6401703F900928745EF0A3CC
:1053200074EFF0900922E4F0A37412F0900915E0F4
:10533000FE900914E0FBEBFF900920EEF0A3EFF0E4
:10534000C39412EE94005005900920800390092226
:10535000E0FEA3E0FF02562BED6402703F900928A7
:10536000745FF0A37401F0900922E4F0A3743BF0A1
:10537000900915E0FE900914E0FDEDFF900920EE84
:10538000F0A3EFF0C3943BEE940050059009208009
:1053900003900922E0FEA3E0FF02562B900911E0E2
:1053A000FD64036003025507900910E0FC703F9014
:1053B0000928745DF0A374DDF0900922E4F0A37471
:1053C00004F0900915E0FE900914E0FBEBFF900952
:1053D00020EEF0A3EFF0C39404EE94005005900982
:1053E000208003900922E0FEA3E0FF02562BEC642C
:1053F00001703F900928745DF0A374A9F090092210
:10540000E4F0A37419F0900915E0FE900914E0FB94
:10541000EBFF900920EEF0A3EFF0C39419EE940097
:1054200050059009208003900922E0FEA3E0FF02CE
:10543000562B900910E0FC6402703F900928745DBF
:10544000F0A37480F0900922E4F0A37429F090098D
:1054500015E0FE900914E0FBEBFF900920EEF0A3AD
:10546000EFF0C39429EE940050059009208003903A
:105470000922E0FEA3E0FF02562BEC6403703F908C
:105480000928745DF0A374C2F0900922E4F0A374BB
:105490000AF0900915E0FE900914E0FBEBFF90097B
:1054A00020EEF0A3EFF0C3940AEE940050059009AB
:1054B000208003900922E0FEA3E0FF02562B900912
:1054C00010E0F4703F900928745DF0A374CCF09064
:1054D0000922E4F0A37411F0900915E0FE9009147C
:1054E000E0FBEBFF900920EEF0A3EFF0C39411EE88
:1054F000940050059009208003900922E0FEA3E06B
:10550000FF02562B025637ED6422600302559C9031
:105510000912E0FD703F900928745DF0A374E1F07A
:10552000900922E4F0A37441F0900915E0FE90097F
:1055300014E0FBEBFF900920EEF0A3EFF0C39441E1
:10554000EE940050059009208003900922E0FEA30C
:10555000E0FF02562BED6401703F900928745EF065
:10556000A37422F0900922E4F0A374CDF090091501
:10557000E0FE900914E0FDEDFF900920EEF0A3EFAE
:10558000F0C394CDEE94005005900920800390095B
:1055900022E0FEA3E0FF02562B025637900911E0ED
:1055A00064216003025637A3E0FD703E9009287421
:1055B0005FF0A3743CF0900922E4F0A37409F0902A
:1055C0000915E0FE900914E0FBEBFF900920EEF0D6
:1055D000A3EFF0C39409EE940050059009208003D6
:1055E000900922E0FEA3E0FF8041ED640170469047
:1055F0000928745FF0A37445F0900922E4F0A374C5
:1056000009F0900915E0FE900914E0FDEDFF900906
:1056100020EEF0A3EFF0C39409EE9400500590093A
:10562000208003900922E0FEA3E0FF900922EEF023
:10563000A3EFF08005800002C1CF12A48C43970431
:10564000229008FBEFF012B79E782FEFF675F01757
:1056500084A6F0E6C31375F00AA4FF9008FBE0FEF1
:10566000249CF582E43402F583EFF074312EF58248
:10567000E43403F5837401F012B79E7830EFF675C9
:10568000F01784AFF0EFF69008FBE0FD75F002A490
:1056900024CBF582E5F03403F583E4F0A3EFF07555
:1056A000F002EDA424CBF582E5F03403F583E47534
:1056B000F0011280F275F002EDA424CBF582E5F042
:1056C0003403F583E0FEA3E02402FDE43EFC9008F1
:1056D000FBE0F925E0FFE433FE74F92FF582740353
:1056E0003EF583ECF0A3EDF075F002E9A424CBF5D0
:1056F00082E5F03403F583E0FCA3E02403FDE43C01
:10570000FC74272FF58274043EF583ECF0A3EDF0D2
:1057100075F002E9A424CBF582E5F03403F583E0CB
:10572000FEA3E02404FDE43EFCE925E0FFE433FEB3
:1057300074552FF58274043EF583ECF0A3EDF075FB
:10574000F002E9A424CBF582E5F03403F583E0FC14
:10575000A3E02405FDE43CFC74832FF58274043E31
:10576000F583ECF0A3EDF075F002E9A424CBF5820B
:10577000E5F03403F583E0FEA3E02406FDE43EFCFF
:10578000E925E0FFE433FE74B12FF58274043EF5A1
:1057900083ECF0A3EDF012B79E9008FBE0FE2431FD
:1057A000F582E43403F583EFF074312EF582E434AE
:1057B00003F583E0FD7FFF129F119008FBE0245C5E
:1057C000F582E43401F583EFF012B79E9008FBE018
:1057D000FE2448F582E43403F583EFF074482EF597
:1057E00082E43403F583E0FD7FFF129F119008FBF4
:1057F000E02473F582E43401F583EFF012B79E9054
:1058000008FBE0FE245FF582E43403F583EFF074D7
:105810005F2EF582E43403F583E0FD7FFF129F11D4
:105820009008FBE0248AF582E43401F583EFF0125E
:10583000B79E9008FBE0FE2476F582E43403F583FE
:10584000EFF074762EF582E43403F583E0FD7FFFFC
:10585000129F119008FBE024A1F582E43401F58346
:10586000EFF012B79E9008FBE0FE248DF582E43441
:1058700003F583EFF0748D2EF582E43403F583E0B5
:10588000FD7FFF129F119008FBE024B8F582E434FD
:1058900001F583EFF012B79E9008FBE0FE24A4F51B
:1058A00082E43403F583EFF074A42EF582E434032C
:1058B000F583E0FD7FFF129F119008FBE024CFF5F8
:1058C00082E43401F583EFF02280109008F6E024A2
:1058D00056F582E43409F583E0601112B79E900812
:1058E000F6EFF075F01784E5F0F080DF9008F6E051
:1058F0002456F582E43409F5837401F012B79EEF63
:1059000075F00684AFF09008F6E0FD75F002A4246F
:10591000CBF582E5F03403F583E4F0A3EFF075F006
:1059200002EDA424CBF582E5F03403F583E0FEA379
:10593000E02402FDE43EFC9008F6E0F925E0FFE4F7
:1059400033FE74F92FF58274033EF583ECF0A3ED7A
:10595000F075F002E9A424CBF582E5F03403F58379
:10596000E0FCA3E02403FDE43CFC74272FF58274E3
:10597000043EF583ECF0A3EDF075F002E9A424CB2E
:10598000F582E5F03403F583E0FEA3E02404FDE4B2
:105990003EFCE925E0FFE433FE74552FF5827404E4
:1059A0003EF583ECF0A3EDF075F002E9A424CBF50D
:1059B00082E5F03403F583E0FCA3E02405FDE43C3C
:1059C000FC74832FF58274043EF583ECF0A3EDF0B4
:1059D00075F002E9A424CBF582E5F03403F583E009
:1059E000FEA3E02406FDE43EFCE925E0FFE433FEEF
:1059F00074B12FF58274043EF583ECF0A3EDF01240
:105A0000B79E9008F6E0FE2431F582E43403F58376
:105A1000EFF074312EF582E43403F583E0FD7FFF6F
:105A2000129F119008F6E0245CF582E43401F583BE
:105A3000EFF012B79E9008F6E0FE2448F582E434B9
:105A400003F583EFF074482EF582E43403F583E028
:105A5000FD7FFF129F119008F6E02473F582E43475
:105A600001F583EFF012B79E9008F6E0FE245FF593
:105A700082E43403F583EFF0745F2EF582E434039F
:105A8000F583E0FD7FFF129F119008F6E0248AF570
:105A900082E43401F583EFF012B79E9008F6E0FE41
:105AA0002476F582E43403F583EFF074762EF582E4
:105AB000E43403F583E0FD7FFF129F119008F6E0C8
:105AC00024A1F582E43401F583EFF012B79E90082B
:105AD000F6E0FE248DF582E43403F583EFF0748D57
